:020000040000FA
:100000000C94E0000C9408010C9408010C94080175
:100010000C9408010C9408010C9408010C94C8136A
:100020000C9408010C9408010C9408010C9408012C
:100030000C9408010C9408010C9408010C9408011C
:100040000C947C140C9408010C944A140C94241401
:100050000C9408010C9408010C9408010C940801FC
:100060000C94C6140C94080100407A10F35A00A0B6
:10007000724E18090010A5D4E80000E87648170071
:1000800000E40B54020000CA9A3B000000E1F505B1
:10009000000080969800000040420F000000A086FB
:1000A00001000000102700000000E803000000002D
:1000B0006400000000000A000000000001000000D1
:1000C00000002C76D888DC674F0823DFC1DFAE59EB
:1000D000E1B1B796E5E3E453C63AE651997696E87E
:1000E000E6C28426EB898C9B62ED407C6FFCEFBC02
:1000F0009C9F40F2BAA56FA5F490055A2AF75C932D
:100100006B6CF9676DC11BFCE0E40D47FEF520E662
:10011000B500D0ED902E0300943577050080841E45
:10012000080000204E0A000000C80C333333330FA0
:10013000986E12831141EF8D2114893BE65516CF3D
:10014000FEE6DB18D1844B381BF77C1D901DA4BB49
:10015000E424203284725E228100C9F124ECA1E5FE
:100160003D2700000000240027002A0000000000B6
:10017000250028002B000000000023002600290095
:10018000040404040404040402020202020203033D
:100190000303030301020408102040800102040845
:1001A00010200102040810200000000800020100D5
:1001B0000003040700000000000000000200E51535
:1001C00011241FBECFEFD8E0DEBFCDBF25E0AEEBE0
:1001D000B3E001C01D92A738B207E1F713E0A0E039
:1001E000B1E0ECE9F1E402C005900D92AE3BB1073D
:1001F000D9F710E0C0EED0E004C02197FE010E94C4
:10020000C61ECF3DD107C9F70E946E160C94CC20B4
:100210000C94000091E090937104809393041092E9
:100220007204109294040895DB0114964D915C9130
:1002300015976D917C91DC01ED91FC910280F38129
:10024000E02D0994AF92BF92CF92DF92EF92FF928E
:100250000F931F93CF93DF936C017B018B01040FEE
:10026000151FEB015E01AE18BF08C017D10759F08A
:100270006991D601ED91FC910190F081E02DC601CC
:100280000995892B79F7C501DF91CF911F910F91C6
:10029000FF90EF90DF90CF90BF90AF900895FC015A
:1002A000538D448D252F30E0842F90E0821B930BDB
:1002B000541710F0CF96089501970895FC01918D81
:1002C000828D981761F0A28DAE0FBF2FB11D5D9684
:1002D0008C91928D9F5F9F73928F90E008958FEF26
:1002E0009FEF0895FC01918D828D981731F0828DDA
:1002F000E80FF11D858D90E008958FEF9FEF089531
:10030000FC01918D228D892F90E0805C9F4F821B94
:1003100091098F739927089585E994E00E948001DF
:1003200021E0892B09F420E0822F089580E090E0FD
:10033000892B29F00E948C0181110C9400000895F2
:10034000FC01A48DA80FB92FB11DA35ABF4F2C914A
:10035000848D90E001968F739927848FA689B78941
:100360002C93A089B1898C91837080648C93938D38
:10037000848D981306C00288F389E02D80818F7DDB
:1003800080830895EF92FF920F931F93CF93DF9393
:10039000EC0181E0888F9B8D8C8D98131AC0E889C1
:1003A000F989808185FF15C09FB7F894EE89FF8990
:1003B0006083E889F98980818370806480839FBF2E
:1003C00081E090E0DF91CF911F910F91FF90EF902E
:1003D0000895F62E0B8D10E00F5F1F4F0F7311273E
:1003E000E02E8C8D8E110CC00FB607FCFACFE88979
:1003F000F989808185FFF5CFCE010E94A001F1CF60
:10040000EB8DEC0FFD2FF11DE35AFF4FF0829FB7EC
:10041000F8940B8FEA89FB8980818062CFCFCF93DC
:10042000DF93EC01888D8823B9F0AA89BB89E8891C
:10043000F9898C9185FD03C0808186FD0DC00FB6C2
:1004400007FCF7CF8C9185FFF2CF808185FFEDCF40
:10045000CE010E94A001E9CFDF91CF9108958330B2
:1004600081F028F4813099F08230A9F00895873026
:10047000A9F08830C9F08430B1F4809180008F7D7C
:1004800003C0809180008F7780938000089584B5A9
:100490008F7784BD089584B58F7DFBCF8091B000A8
:1004A0008F778093B00008958091B0008F7DF9CF51
:1004B000CF93DF93282F30E0F901E855FE4F849168
:1004C000F901EC56FE4FD491F901E058FE4FC4916A
:1004D000CC23A1F081110E942F02EC2FF0E0EE0F4F
:1004E000FF1FEA58FE4FA591B491EC91ED2381E0F6
:1004F00090E009F480E0DF91CF91089580E090E0F2
:10050000FACF1F93CF93DF93282F30E0F901E855FE
:10051000FE4F8491F901EC56FE4FD491F901E05859
:10052000FE4FC491CC23A9F0162F81110E942F02F7
:10053000EC2FF0E0EE0FFF1FE459FE4FA591B491B0
:100540008FB7F894EC91111108C0D095DE23DC939D
:100550008FBFDF91CF911F910895DE2BF8CF90913F
:10056000000189130BC0ECEBF1E0E4919FEF909355
:100570000001E13049F028F0E23061F060E00C94D5
:10058000810210926E00FACF90916F009D7F909340
:100590006F00F4CF909170009D7F9093700091E078
:1005A0009093B0009091B100987F94609093B100C7
:1005B0001092B300E3CFCF93DF9390E0FC01EC56B1
:1005C000FE4F249180589E4FFC0184918823D1F0E6
:1005D00090E0880F991FFC01EE59FE4FA591B49150
:1005E000FC01E459FE4FC591D491623071F49FB77C
:1005F000F8943C91822F809583238C93E8812E2B55
:1006000028839FBFDF91CF9108958FB7F894EC9125
:100610002E2B2C938FBFF6CF3FB7F8948091160402
:1006200090911704A0911804B091190426B5A89BC5
:1006300005C02F3F19F00196A11DB11D3FBFBA2F74
:10064000A92F982F8827BC01CD01620F711D811D34
:10065000911D42E0660F771F881F991F4A95D1F7B9
:1006600008958F929F92AF92BF92CF92DF92EF92B6
:10067000FF926B017C010E940C034B015C01C114D1
:10068000D104E104F104B9F00E940C03681979095E
:100690008A099B09683E73408105910580F321E03A
:1006A000C21AD108E108F10888EE880E83E0981E8E
:1006B000A11CB11CE4CFFF90EF90DF90CF90BF90D2
:1006C000AF909F908F9008958F929F92AF92BF921C
:1006D000EF92FF921F93CF93DF93EC01162FE881E7
:1006E000F9810484F585E02D462F70E060E00995DE
:1006F0007C0111501230D8F419861A86888899889E
:10070000AA88BB880E940C03688F798F8A8F9B8F81
:100710008C8E9D8EAE8EBF8EC701DF91CF911F91C3
:10072000FF90EF90BF90AF909F908F9008958C882E
:100730009D88AE88BF88E6CF61E086E595E00C94A1
:100740006403DC0118968C911897481710F04FEF4E
:10075000480F1B969C911B97992389F017969C91A3
:100760001797691730F0691B4F5F4817D0F340E0C7
:10077000F8CF19966C9319971A964C931A97FD0116
:10078000E40FF11D8485680F6068CD010C9464034B
:100790008F929F92AF92BF92EF92FF920F931F930F
:1007A000CF93DF93EC01462FE881F9810484F5852E
:1007B000E02D61E070E009957C018C889D88AE8811
:1007C000BF880E940C03688F798F8A8F9B8F8C8ED5
:1007D0009D8EAE8EBF8E01E010E0EF2811F010E08C
:1007E00000E08B85882399F089858F5F89879F81B9
:1007F000891768F019868A858F5F8A879885891797
:1008000008F01A864A8560E0CE010E94A103C80163
:10081000DF91CF911F910F91FF90EF90BF90AF901C
:100820009F908F9008958DEF9FEF08958DEF9FEF2C
:10083000089590E080E008952091EC03260F33277F
:10084000331F21323105ECF420916B04FC0190E060
:1008500080E0243069F082E00895A091EC032191BA
:10086000AC0146535C4FA40FB52FB11D2C930196DC
:10087000861798F38091EC03680F6093EC0380E097
:10088000089581E0089510926B0481E080936A04DA
:100890001092450461E082E10E94810261E083E1FF
:1008A0000E948102E9EBF0E080818E7F808380816D
:1008B0008D7F808388E48093B80085E48093BC00BA
:1008C0000895CF93DF9391E09093C9038823B9F003
:1008D000C091B800D091BA008091BC008A7B80930F
:1008E000BC0060E082E10E94810260E083E10E943E
:1008F00081020E944304D093BA00C093B800DF91F4
:10090000CF910895CF92DF92EF92FF920F931F93B2
:10091000CF93DF93D091940481E0D13208F09CC052
:10092000C09193040E940C036B017C0180916B04C5
:1009300081116CC082E080936B0481E080936A0433
:100940008FEF8093690410926804D0936704A3E743
:10095000B4E0E7E4F4E080E0D8138DC010924604E0
:1009600080914604CC0FC82BC09346048091450467
:10097000813009F084C0109245040E940C036B0181
:100980007C01809146048093BB0080916D0490911E
:100990006E04A0916F04B0917004892B8A2B8B2B6D
:1009A000A1F00E940C0300916D0410916E0420913F
:1009B0006F04309170046C197D098E099F09061728
:1009C00017072807390708F442C08091BC0083FD4F
:1009D000D8CF85EC8093BC000E940C036B017C0196
:1009E00080916B04823009F44CC0809169048F3F80
:1009F00009F469C080916904803209F466C080916D
:100A00006904803309F463C084E026C080916D04DA
:100A100090916E04A0916F04B0917004892B8A2B81
:100A20008B2B09F483CF0E940C0300916D0410916D
:100A30006E0420916F04309170046C197D098E0949
:100A40009F09061717072807390708F06FCF80910D
:100A50006C040E94610485E0109272041092940468
:100A600010927104DF91CF911F910F91FF90EF9041
:100A7000DF90CF9008959D9191938F5F6DCF85EE1C
:100A8000A9CF80916D0490916E04A0916F04B091F4
:100A90007004892B8A2B8B2B09F4A2CF0E940C03A4
:100AA00000916D0410916E0420916F0430917004D8
:100AB0006C197D098E099F09061717072807390742
:100AC00008F08ECFC4CF80E0C7CF82E0C5CF83E0EF
:100AD000C3CF089508950895E091240480912304DC
:100AE000E81730F4F0E0EB5DFB4F808190E0089573
:100AF0008FEF9FEF089590912404809123042FEFAE
:100B00003FEF981748F4E92FF0E0EB5DFB4F2081B1
:100B100030E09F5F90932404C901089580912304DD
:100B200090912404891B990B0895CF92DF92EF9244
:100B3000FF920F931F93CF93DF937C01CB018A0128
:100B400020917104222389F0EB016B01C40ED51EA4
:100B5000CC15DD0569F06991D701ED91FC9101900B
:100B6000F081E02DC7010995F3CF642F0E941C048A
:100B7000C801DF91CF911F910F91FF90EF90DF900F
:100B8000CF900895CF93DF931F92CDB7DEB76983DF
:100B9000209171042223F9F020919404203258F01E
:100BA00021E030E0FC013383228390E080E00F906D
:100BB000DF91CF91089580917204E82FF0E0ED5815
:100BC000FB4F998190838F5F80937204809394048C
:100BD00081E090E0ECCF61E0CE0101960E941C0420
:100BE000F7CF682F82E395E00C94C2050F931F9313
:100BF000CF93DF93182FD0E0C0E28C2F0E940A0120
:100C00000E948204082F61E070E080E090E00E9482
:100C10003103011103C01D17D1F0DF5FCF5FC83270
:100C200061F7C8E38C2F0E940A010E948204082FFA
:100C300061E070E080E090E00E943103011103C0A8
:100C40001D1729F0DF5FCF5FC03461F7C0E08C2F44
:100C5000DF91CF911F910F910895CF93DF93EC0116
:100C60000E949C0362E086E595E00E946403BE0159
:100C700086E595E0DF91CF910C941401CF93FC01B0
:100C8000C4A560FF02C086A1C82B61FF02C087A176
:100C9000C82B62FF02C080A5C82B63FF02C081A5DC
:100CA000C82B4130510511F483A1C82B85A18C2B91
:100CB00090E00E94F1056C2F82E395E0CF910C94B7
:100CC000C205CF93DF93EC018AA5882349F19BA548
:100CD000662311F1913011F58CA788A10E940A01B9
:100CE00089A19AA1029721F489E090E00E94F10580
:100CF0006CA582E395E00E94C2050E94820421E077
:100D000030E0811102C030E020E088279927821B63
:100D1000930BDF91CF9108959923F1F21CA6DDCFBB
:100D20008DEF9FEFF6CF4F925F926F927F928F92EF
:100D30009F92AF92BF92EF92FF921F93CF93DF9358
:100D4000EC0188A1882309F459C089A19AA1892BB3
:100D500009F454C0142F7B014C8C5D8C6E8C7F8CFD
:100D6000888C998CAA8CBB8C8DE2881A9108A1087A
:100D7000B1080E940C03681979098A099B09641556
:100D8000750586059705A8F388A10E940A0189A127
:100D90009AA1029721F489E090E00E94F105612F69
:100DA00070E084E0759567958A95E1F7A701CE011B
:100DB0000E943E0682E0E816F10431F0612F6F7068
:100DC000A701CE010E943E060E94820421E030E08D
:100DD000811102C030E020E088279927821B930B05
:100DE000DF91CF911F91FF90EF90BF90AF909F90B8
:100DF0008F907F906F905F904F9008958CEF9FEF52
:100E0000EFCFCF92DF92EF92FF920F931F93CF938A
:100E1000DF93482F62E070E086E595E00E9493063C
:100E20008C01C6E5D5E0CC88DD88EE88FF880E947D
:100E30000C03688F798F8A8F9B8FCC8EDD8EEE8E20
:100E4000FF8EC801DF91CF911F910F91FF90EF901E
:100E5000DF90CF9008950895CF92DF92EF92FF92A6
:100E60000F931F93CF93C82F0E940C036B017C013B
:100E700080916B04811164C081E080936B04809346
:100E80006A049FEF909369041092680410926704BB
:100E90008093460480914604CC0FC82BC09346042F
:100EA00080914504813009F07DC0109245040E9474
:100EB0000C036B017C01809146048093BB00809100
:100EC0006D0490916E04A0916F04B0917004892B11
:100ED0008A2B8B2BA1F00E940C0300916D041091C2
:100EE0006E0420916F04309170046C197D098E0995
:100EF0009F09061717072807390708F442C0809191
:100F0000BC0083FDD8CF85EC8093BC000E940C030D
:100F10006B017C0180916B04813009F445C08091A4
:100F20006804811163C080916804E7E4F4E0A5E2FD
:100F3000B4E090E0981751F121912D939F5FFACF83
:100F400080916D0490916E04A0916F04B091700433
:100F5000892B8A2B8B2B09F48BCF0E940C030091D9
:100F60006D0410916E0420916F04309170046C191F
:100F70007D098E099F09061717072807390708F00A
:100F800077CF80916C040E94610480E01092240469
:100F900080932304CF911F910F91FF90EF90DF90EA
:100FA000CF90089585EEB0CF80916D0490916E043E
:100FB000A0916F04B0917004892B8A2B8B2B09F4BC
:100FC000A9CF0E940C0300916D0410916E04209132
:100FD0006F04309170046C197D098E099F09061702
:100FE00017072807390708F095CFCBCF81E09DCFB1
:100FF0004F925F926F927F928F929F92AF92BF9229
:10100000EF92FF920F931F93CF93DF93EC011CA5F8
:1010100088A1882309F4E1C089A19AA1009709F465
:10102000DCC0029709F4DCC08CA1882309F4D8C085
:101030007B014C8C5D8C6E8C7F8C888C998CAA8CFF
:10104000BB8C8DE2881A9108A108B1080E940C039C
:10105000681979098A099B0964157505860597053C
:10106000A8F38EA1182B8FA1182B88A5182B89A562
:10107000182BEA94EF2811F48BA1182B8CA1182BB4
:1010800088A10E940A01612F82E395E00E94C205B7
:101090000E948204882301F10FEF1FEF88A10E94B4
:1010A0000A016CA582E395E00E94C2050E948204B9
:1010B000882311F00FEF1FEFC801DF91CF911F912F
:1010C0000F91FF90EF90BF90AF909F908F907F9087
:1010D0006F905F904F90089588A10E940A018DA1A2
:1010E000812B90E00E94F1050E9482048111D4CFEF
:1010F00088A190E00E942C0782E395E00E947B0586
:101100007C0197FDC9CF88A10E940A01612F82E36B
:1011100095E00E94C2050E948204082F8111BCCF75
:101120008EA190E08E219F21892B09F000E18FA1F3
:1011300090E08E219F21892B09F0006288A590E024
:101140008E219F21892B09F0006489A590E08E21D2
:101150009F21892B09F0006888A10E940A018DA1B6
:10116000812B90E00E94F1050E948204811194CFAE
:1011700088A190E00E942C0782E395E00E947B0505
:101180007C0197FD89CF88A10E940A01612F82E32B
:1011900095E00E94C2050E94820481117DCF8EA13C
:1011A00090E08E219F21892B09F001608FA190E0B2
:1011B0008E219F21892B09F0026088A590E08E2165
:1011C0009F21892B09F0046089A590E08E219F2141
:1011D000892B09F0086010E061CF0CEF1FEF6CCF96
:1011E0000DEF1FEF69CF0F931F93CF93DF93EC01A8
:1011F000109224041092230410927204109294040A
:101200000E94430489E695E09093EB038093EA0300
:101210008AE695E09093EF038093EE0388A1811115
:101220007EC08091BE0391E0980F9093BE030E9410
:10123000F60588A388A1811109C08091BE0391E0C1
:10124000980F9093BE030E94F60588A318A111235E
:1012500009F46CC089A19AA1892B09F021C1812FC1
:101260000E940A0160E082E395E00E94C2056FEFF0
:1012700082E395E00E94C2050E948204812F0E94B1
:101280000A0160E082E395E00E94C2050E948204A8
:10129000812F90E00E942C0782E395E00E947B055D
:1012A0008F3F910509F049C082E090E09AA389A39D
:1012B00088A10E940A0160E082E395E00E94C205D5
:1012C0008FEF90E00E94F1050E94820488A10E94A5
:1012D0000A0186E090E00E94F1058FE790E00E940D
:1012E000F1050E94820488A10E940A0189E090E031
:1012F0000E94F1050E94820488A190E00E942C07C0
:1013000082E395E00E947B058F3709F002C127E058
:1013100036E045E054E063E072E0E1E005C10E94A0
:101320000A010E948204882309F484CF8CEF9FEF86
:10133000DF91CF911F910F910895892B29F01AA267
:1013400019A28FEF9FEFF4CF81E090E09AA389A3D9
:1013500088A10E940A016FEF82E395E00E94C20516
:101360000E94820488A190E00E942C0782E395E00D
:101370000E947B058C0188A10E940A016BEF82E329
:1013800095E00E94C2050E94820488A190E00E941C
:101390002C0782E395E00E947B0598012770332794
:1013A0002730310509F04DC0807F9927803F910596
:1013B00009F047C083E0169507958A95E1F761E04B
:1013C0000627017043E057E066E075E0E4E022E0C4
:1013D000F1E030E081E090E0DC0101C0AA0F3A9535
:1013E000EAF7ABA3DC0101C0AA0FFA95EAF7ACA3B8
:1013F000DC0102C0AA0FBB1F2A95E2F7ADA39C0136
:1014000001C0220FEA95EAF72EA39C0101C0220F2A
:101410007A95EAF72FA39C0101C0220F6A95EAF79B
:1014200028A79C0101C0220F5A95EAF729A701C0FD
:10143000880F4A95EAF78AA70BA7013081F58CA798
:101440002FC0C801807799278037910519F08DEF5B
:101450009FEF6ECF88A10E940A016FEE82E395E0B4
:101460000E94C2050E94820488A190E00E942C077D
:1014700082E395E00E947B058F70992726E034E097
:101480000F9711F424E036E00095001F0027001F9D
:1014900047E053E062E071E0E0E0F5E09BCF1CA69E
:1014A00088A10E940A0189A19AA1029701F585E00D
:1014B00090E00E94F10580E290E00E94F1050E9418
:1014C000820488A10E940A0160E082E395E00E9404
:1014D000C20560E082E395E00E94C2050E9482049A
:1014E00088A10E940A0189E090E00E94F10560E075
:1014F00082E395E00E94C2050E94820421E030E070
:10150000811102C030E020E088279927821B930BCD
:101510000FCF86FF3BC081FD9ACF21E032E043E050
:1015200054E065E076E0E7E081E090E0DC0102C0B5
:10153000AA0FBB1FEA95E2F7ABA31CA2FC0101C0F6
:10154000EE0F7A95EAF7EDA3FC0102C0EE0FFF1F44
:101550006A95E2F7EEA3BC0101C0660F5A95EAF75F
:101560006FA3BC0102C0660F771F4A95E2F768A718
:10157000AC0101C0440F3A95EAF749A701C0880FB2
:101580002A95EAF78AA791E09BA759CF26E033E096
:1015900042E051E060E077E0E4E0C6CFFB0101907B
:1015A0000020E9F73197AF01461B570BDC01ED91A5
:1015B000FC910280F381E02D09940F931F93CF9348
:1015C000DF93EC010E9414018C0163E572E0CE010F
:1015D0000E94CE0A800F911FDF91CF911F910F9132
:1015E0000895CF93DF93EC0188819981009711F0E2
:1015F0000E94681F198218821D821C821B821A8217
:10160000DF91CF910895FC0180819181009711F0C5
:101610000C94681F08950E94AE20FC01248135813E
:10162000232B39F421E0FB018081882349F020E05D
:1016300007C0808191810E94BC2021E0892BB9F7ED
:10164000822F08950F931F93CF93DF93EC0188812E
:101650009981009759F02A813B812617370730F08E
:1016600081E0DF91CF911F910F9108958B016F5F02
:101670007F4F0E94F11F009759F0998388831B8345
:101680000A832C813D81232B59F7FC011082E8CF7E
:1016900080E0E7CFEF92FF920F931F93CF93DF93FA
:1016A0006115710541F480E0DF91CF911F910F9199
:1016B000FF90EF90089541155105B1F07B01EC01C9
:1016C0000C811D81040F151FB8010E94220B882375
:1016D00051F3288139818C819D81B701820F931F3D
:1016E0000E94C5201D830C8381E0DECFCF93DF9362
:1016F000EC01FB0101900020E9F73197AF01461B97
:10170000570B0E944A0B811103C0CE010E94F10ABF
:10171000CE01DF91CF910895CF93DF93EC01FB01D0
:1017200044815581608171810E944A0B811103C0FF
:10173000CE010E94F10ACE01DF91CF910895EF9280
:10174000FF920F931F93CF93DF93EC017B018A01EC
:10175000BA010E94220B81110BC0CE010E94F10A36
:10176000CE01DF91CF911F910F91FF90EF900895DF
:101770001D830C83B701888199810E94C520F0CF19
:10178000EF92FF920F931F93CF93DF93CDB7DEB706
:10179000A1970FB6F894DEBF0FBECDBF7C01CB0181
:1017A000BA01F7011182108213821282158214820B
:1017B0008E010F5F1F4F22E044E00E946A190097DC
:1017C000C9F0FC0101900020E9F73197AF01481BF7
:1017D000590BBC01C7010E949F0BA1960FB6F8944C
:1017E000DEBF0FBECDBFDF91CF911F910F91FF9054
:1017F000EF900895C7010E94F10AEFCFEF92FF9298
:101800000F931F93CF93DF93CDB7DEB762970FB6D9
:10181000F894DEBF0FBECDBF8C01CB01F801118261
:10182000108213821282158214824AE09E012F5F79
:101830003F4F7901B9010E948819F70101900020FA
:10184000E9F73197AF014E195F09B701C8010E944E
:101850009F0B62960FB6F894DEBF0FBECDBFDF912F
:10186000CF911F910F91FF90EF900895FB01DC0144
:1018700011961C921E9213961C921E921297159608
:101880001C921E9214978617970749F06081718108
:101890006115710521F0448155810C949F0B0895C9
:1018A000FC0111821082138212821582148261154A
:1018B000710551F0FB0101900020E9F73197AF016C
:1018C000461B570B0C949F0B0895CF92DF92EF921B
:1018D000FF920F931F93CF93DF93CDB7DEB762973D
:1018E0000FB6F894DEBF0FBECDBF8C017B0166E55D
:1018F00072E0C7010E940D0B882389F1B801CE0167
:101900000D960E94360C80915005882321F1C090DD
:101910005405D0905505BE01635F7F4FCE010796F9
:101920000E94360C6CE572E0CE0101960E94500CCC
:10193000BE01695F7F4FCE0101960E948C0BBC01F6
:10194000C6010E94DD0ACE0101960E94030BCE0162
:1019500007960E94030BCE010D960E94030B64E6CE
:1019600072E0C7010E940D0B882389F1B801CE01F6
:101970000D960E94360C80915105882321F1C0906C
:101980005405D0905505BE01635F7F4FCE01079689
:101990000E94360C69E672E0CE0101960E94500C5E
:1019A000BE01695F7F4FCE0101960E948C0BBC0186
:1019B000C6010E94DD0ACE0101960E94030BCE01F2
:1019C00007960E94030BCE010D960E94030B60E761
:1019D00072E0C7010E940D0B882389F1B801CE0186
:1019E0000D960E94360C80915205882321F1C090FB
:1019F0005405D0905505BE01635F7F4FCE01079619
:101A00000E94360C68E772E0CE0101960E94500CED
:101A1000BE01695F7F4FCE0101960E948C0BBC0115
:101A2000C6010E94DD0ACE0101960E94030BCE0181
:101A300007960E94030BCE010D960E94030B62E8ED
:101A400072E0C7010E940D0B882389F1B801CE0115
:101A50000D960E94360C80915305882321F1009148
:101A6000540510915505BE01635F7F4FCE01079667
:101A70000E94360C69E872E0CE0101960E94500C7B
:101A8000BE01695F7F4FCE0101960E948C0BBC01A5
:101A9000C8010E94DD0ACE0101960E94030BCE010F
:101AA00007960E94030BCE010D960E94030B6296CF
:101AB0000FB6F894DEBF0FBECDBFDF91CF911F915F
:101AC0000F91FF90EF90DF90CF9008950F931F93A9
:101AD000CF93DF93CDB7DEB72C970FB6F894DEBF68
:101AE0000FBECDBF8C0164E672E0CE0101960E946C
:101AF000500CB801CE0107960E94360CBE016F5FF4
:101B00007F4FCE0107960E94650CCE0107960E947A
:101B1000030BCE0101960E94030B2C960FB6F8948E
:101B2000DEBF0FBECDBFDF91CF911F910F91089502
:101B3000CF92DF92EF92FF920F931F93CF93DF9399
:101B4000CDB7DEB768970FB6F894DEBF0FBECDBF36
:101B50008C017B016A010E949C0341E067E086E5FD
:101B600095E00E94A103B60186E595E00E9414016C
:101B700041E060E086E595E00E94A103B70186E5BB
:101B800095E00E94140140E060E086E595E00E9447
:101B9000A1030115110529F0B80186E595E00E9421
:101BA000CE0A82E00E945802019761F483E00E940D
:101BB0005802019739F482E00E94580283E00E94A3
:101BC0005802EFCF82E00E94580266E572E0892B4E
:101BD00009F042C0CE0101960E94500CB801CE011E
:101BE00043960E94500CBE016D5E7F4FCE010D9654
:101BF0000E94360C62E972E0CE010D960E94760BCF
:101C0000BC01CE0107960E94360CBE016F5F7F4F6C
:101C1000CE0107960E94650CCE0107960E94030B29
:101C2000CE010D960E94030BCE0143960E94030B3A
:101C3000CE0101960E94030B80E068960FB6F894DF
:101C4000DEBF0FBECDBFDF91CF911F910F91FF90EF
:101C5000EF90DF90CF900895CE0101960E94500C36
:101C6000B801CE0143960E94500CBE016D5E7F4FBD
:101C7000CE010D960E94360C69E972E0CE010D96F8
:101C80000E94760BBC01CE0107960E94360CBE0165
:101C90006F5F7F4FCE0107960E94650CCE010796BD
:101CA0000E94030BCE010D960E94030BCE014396BA
:101CB0000E94030BCE0101960E94030B81E0BDCF71
:101CC0002F923F924F925F926F927F928F929F924C
:101CD000AF92BF92CF92DF92EF92FF920F931F933A
:101CE000CF93DF93CDB7DEB7C455D1090FB6F894C3
:101CF000DEBF0FBECDBF8F8E98A2A9A2BAA2CBA283
:101D0000DCA2EDA2FEA20FA318A729A73AA74BA712
:101D10005CA76DA77EA78FA798AB6F8D78A16E018A
:101D200027E0C20ED11CC6010E94500C6FE972E080
:101D30008E010F5F1F4FC8010E94500CB601C801F1
:101D40000E948C0B7E013DE0E30EF11CBC01C7013B
:101D50000E94360CC7010E94660DC7010E94030B4A
:101D6000C8010E94030BC6010E94030B8DA19EA116
:101D7000AFA1B8A52F968CAF9DAFAEAFBFAF2F97D9
:101D8000ABA1BCA12996BFAFAEAF2997E9A1FAA13B
:101D90006196FFAFEEAF61972FA538A921963FAFAF
:101DA0002EAF21976DA47EA4ABA4BCA489A49AA451
:101DB00067EA72E0C8010E94500CC8010E94660DDB
:101DC000C8010E94030B6FAA78AE8DAE9EAEABAE7B
:101DD000BCAE1AAE19AE25961CAE1DAE1EAE1FAE21
:101DE000259727961FAE1EAE279729968EAD9FADDD
:101DF0002997092E000CAA0BBB0B65968CAF9DAFE3
:101E0000AEAFBFAF6597C9AADAAAEDAAFEAA0BAB1F
:101E10001CAB2196AEADBFAD2197E9ADFAADEA1787
:101E2000FB070CF049C0ADADBEAD6D907D90BEAF6F
:101E3000ADAFEFA9F8AD20803180ABADBCADCD909A
:101E4000DD90ED90FD90BCAFABAF65966CAD7DAD18
:101E50008EAD9FAD65970E94F61BA70196010E946B
:101E6000551C4B015C012FEF3FEF4FE75FE70E94EE
:101E7000581E181634F0B3E02B16310414F477FE14
:101E800070C062E872E0CE0101960E94500C65EBD2
:101E900072E0CE0107960E94500CBE016F5F7F4F2B
:101EA000CE0107960E94650CCE0107960E94030B97
:101EB000CE0101960E94030B8EE00E94AF0214E057
:101EC00060E0812F0E9481021F5F1D30C9F763E32C
:101ED00073E0CE0101960E94500CCE0101960E9443
:101EE000660DCE0101960E94030B2796AEADBFADE5
:101EF0002797BD01BB0F880B990B0E94F61B9B0116
:101F0000AC0125966CAD7DAD8EAD9FAD25970E9441
:101F1000B71D20E030E048EC52E40E94551C9B01C4
:101F2000AC0160E070E088EC92E40E944A1DCC5A5B
:101F3000DF4F0FB6F894DEBF0FBECDBFDF91CF915C
:101F40001F910F91FF90EF90DF90CF90BF90AF90D7
:101F50009F908F907F906F905F904F903F902F90C9
:101F6000089510E000E0E4E0FE2EF00E60E08F2D1A
:101F70000E94810289AD9AAD800F911F2196EEAD2E
:101F8000FFAD21978E179F077CF4F801EE0FFF1F1E
:101F90002FA938ADE20FF31F80819181892B21F4A5
:101FA00061E08F2D0E9481020F5F1F4F05301105E8
:101FB000D1F610E000E069E0F62EF00E60E08F2D23
:101FC0000E94810289AD9AAD800F911F2196AEAD1E
:101FD000BFAD21978A179B077CF4F801EE0FFF1F16
:101FE0002FA938ADE20FF31F80819181019721F471
:101FF00061E08F2D0E9481020F5F1F4F0530110598
:10200000D1F6B501A40189A99AA90E94C00BB1011A
:102010008DA99EA90E94FE0BB301CE0143960E949A
:10202000FE0B6CED72E0CE0149960E94500CBE0191
:102030006D5E7F4FCE0149960E948C0B69E073E084
:102040000E94760B6DA97EA90E948C0B69E073E05B
:102050000E94760B69A97AA90E948C0BBC018BA9FE
:102060009CA90E94360C8BA99CA90E94660D8BA985
:102070009CA90E94030BCE0149960E94030BCE013E
:1020800043960E94030B8DA99EA90E94030B89A968
:102090009AA90E94030B61147104B1F58EE00E94AD
:1020A000AF0292E02916310409F42DC38FB7F894DA
:1020B0004090120450901304609014047090150422
:1020C0008FBF2114310409F4EFC12A94232809F4A5
:1020D0003DC260E772E08BA99CA90E94500C6BE0A6
:1020E00073E089A99AA90E94500C6BA97CA989A9BF
:1020F0009AA90E94650C89A99AA90E94030B8BA931
:102100009CA90E94030BD8C1809100018E3009F078
:10211000A9C0ECEBF1E0149117FDC3CF61E08EE0B4
:102120000E94DB02112319F0123009F068C163012B
:10213000770CEE08FF0860E072E18AE790E0A70103
:1021400096010E94711E29013A01DA01C901019725
:10215000A109B1098F3F9105A105B10509F00CF462
:1021600032C160E472E48FE090E0A70196010E9422
:10217000711E2150310941095109123009F0E4C0A2
:1021800082E02F3F31054105510509F00CF45BC099
:1021900060E970ED83E090E0A70196010E94711E56
:1021A000215031094109510983E02F3F3105410593
:1021B000510509F00CF447C068E478EE81E090E046
:1021C000A70196010E94711E215031094109510950
:1021D00084E02F3F310541055105A9F1A4F164E2E6
:1021E00074EF80E090E0A70196010E94711E2150DB
:1021F00031094109510985E02F3F3105410551055C
:1022000011F108F162E17AE780E090E0A701960120
:102210000E94711E215031094109510986E02F3F6A
:1022200031054105510579F070F08AE075946794A5
:10223000579447948A95D1F7A3019201215031090F
:102240004109510987E09091B100987F892B8093D3
:10225000B100113009F400C1123009F412C111119A
:1022600020CFB9C08F3F09F01CCF8EE080930001D2
:10227000ECEBF1E014911F3F09F413CF113021F181
:1022800050F0123009F43EC017FD0BCF61E08EE034
:102290000E94DB0249CF14BC15BC84B5826084BDAA
:1022A00085B5816085BDEEE8F1E0E491F0E0EE0FE8
:1022B000FF1FE459FE4F85919491E2EAF1E0E49129
:1022C000E093C00310E02ACF1092800010928100AA
:1022D000809181008860809381008091810081607D
:1022E00080938100EEE8F1E0E491F0E0EE0FFF1F53
:1022F000E459FE4F85919491E2EAF1E0E491E09394
:10230000BF030CCF1092B0001092B1008091B000CA
:1023100082608093B0008091B10081608093B100B1
:10232000EEE8F1E0E491F0E0EE0FFF1FE459FE4F1C
:102330008591949190931B0480931A04E2EAF1E052
:10234000E491E0931C04EACE2F3F3105410551058D
:1023500009F00CF452C068E478EE81E090E0A70147
:1023600096010E94711E215031094109510984E0F2
:10237000111142CF83E02F3F31054105510539F15D
:1023800034F162E17AE780E090E0A70196010E94D3
:10239000711E215031094109510984E02F3F310557
:1023A00041055105A1F098F09AE07594679457940F
:1023B00047949A95D1F7A30192012150310941091F
:1023C000510985E004C09C0181E011113CCF95B515
:1023D000987F892B85BD27BD8FEF9FEFDC01809310
:1023E000C5039093C603A093C703B093C80380911D
:1023F0006E00826080936E0054CE82E0E6CF63016F
:10240000770CEE08FF0860E072E18AE790E0A70130
:1024100096010E94711E215031094109510991E034
:102420002115310581E0480751056CF068E478EE2C
:1024300081E090E0A70196010E94711E21503109B0
:102440004109510993E0113009F003CF80918100D7
:10245000887F892B809381003093890020938800A6
:102460008FEF9FEFDC018093C1039093C203A09391
:10247000C303B093C40380916F00826080936F00A8
:1024800010CE2093B3008FEF9FEFDC0180931D04EB
:1024900090931E04A0931F04B093200480917000B9
:1024A000826080937000FDCDB3E02A96BFAF2A977B
:1024B000E2E02B96EFAF2B97A50194012F966CAD20
:1024C0007DAD8EAD9FAD2F970E94551C7B018C0179
:1024D0002FB7F89460911204709113048091140442
:1024E000909115042FBF64197509860997090E94F8
:1024F000F41B9B01AC01B701C8010E94581E87FD67
:1025000022C02A968FAD2A970E945802892B39F54E
:102510002FB7F89460911204709113048091140401
:10252000909115042FBF64197509860997090E94B7
:10253000F41B9B01AC01B701C8010E944A1D0E9417
:10254000291E0E9431033701680126C0F2E02A9655
:10255000FFAF2A9723E02B962FAF2B97ADCF2B966B
:102560008FAD2B970E945802892B09F0B1CF2FB75E
:10257000F8948091120490911304A0911404B091E6
:1025800015042FBF84199509BC01990F880B990B6D
:102590000E94F61B3B016C019701A801B301C60123
:1025A0000E94B71D1B012C01AC019B0125966CAD4F
:1025B0007DAD8EAD9FAD25970E944B1D25966CAFCE
:1025C0007DAF8EAF9FAF259727968EAD9FAD279796
:1025D000019627969FAF8EAF279720E030E048EC1A
:1025E00052E4C201B1010E94551C9B01AC0160E0A4
:1025F00070E088EC92E40E944A1D1B012C01BC0192
:10260000A10189A99AA90E94C00B6AE273E08DA971
:102610009EA90E94500C69A97AA98DA99EA90E9421
:102620008C0B61E373E00E94760BBC018BA99CA923
:102630000E94360C8BA99CA90E94660D8BA99CA9AF
:102640000E94030B8DA99EA90E94030B89A99AA938
:102650000E94030BAA969FADAA97992359F1B20144
:10266000A10189A99AA90E94C00B6AE273E08DA911
:102670009EA90E94500C69A97AA98DA99EA90E94C1
:102680008C0B61E373E00E94760BBC018BA99CA9C3
:102690000E94360C8BA99CA90E942D068BA99CA98F
:1026A0000E94030B8DA99EA90E94030B89A99AA9D8
:1026B0000E94030B9301A601C501B4010E944A1DAB
:1026C0000E94291E0E9431038EE00E94AF022996CB
:1026D0008EAD9FAD299761966EAD7FAD61970E94DB
:1026E0005D1E072E000C880B990B0E943103E9AD8B
:1026F000FAAD3196FAAFE9AF2FA938AD2E5F3F4F53
:1027000038AF2FAB86CBAA96AFADAA97C501B4015F
:10271000AA23B1F220E030E0A9010E944B1DD0CFE6
:1027200085ED8093BC0080916D0490916E04A09122
:102730006F04B09170040796A11DB11D23E0B695FA
:10274000A795979587952A95D1F72091BC0024FDF0
:1027500003C010926B04089540916D0450916E0473
:1027600060916F0470917004452B462B472B69F3E1
:102770000097A105B10541F025E32A95F1F7000086
:102780000197A109B109E1CF80916C040C94610417
:102790001F920F920FB60F9211242F933F934F93D6
:1027A0005F936F937F938F939F93AF93BF93EF93B9
:1027B000FF9380911D0490911E04A0911F04B0917D
:1027C0002004892B8A2B8B2BD1F190911C04E09152
:1027D0001A04F0911B0480818927808380911D0455
:1027E00090911E04A0911F04B091200418161906A0
:1027F0001A061B069CF480911D0490911E04A09162
:102800001F04B09120040197A109B10980931D0410
:1028100090931E04A0931F04B0932004FF91EF91A6
:10282000BF91AF919F918F917F916F915F914F91E8
:102830003F912F910F900FBE0F901F901895809190
:1028400000010E94AF02EACF1F920F920FB60F92C3
:1028500011242F933F934F935F936F937F938F93A5
:102860009F93AF93BF93EF93FF9385E994E00E940A
:10287000A001FF91EF91BF91AF919F918F917F91B7
:102880006F915F914F913F912F910F900FBE0F90DD
:102890001F9018951F920F920FB60F9211242F932D
:1028A0008F939F93EF93FF93E091A504F091A6047B
:1028B0008081E091AB04F091AC0482FD1BC090815B
:1028C0008091AE048F5F8F732091AF04821741F027
:1028D000E091AE04F0E0EB56FB4F958F8093AE0491
:1028E000FF91EF919F918F912F910F900FBE0F90BD
:1028F0001F9018958081F4CF1F920F920FB60F9200
:1029000011242F933F938F939F93AF93BF93809105
:10291000120490911304A0911404B0911504309105
:10292000110423E0230F2D3758F50196A11DB11D89
:10293000209311048093120490931304A093140421
:10294000B09315048091160490911704A091180477
:10295000B09119040196A11DB11D809316049093A6
:102960001704A0931804B0931904BF91AF919F91DD
:102970008F913F912F910F900FBE0F901F90189540
:1029800026E8230F0296A11DB11DD2CF1F920F92F0
:102990000FB60F9211242F933F934F935F936F9332
:1029A0007F938F939F93AF93BF93EF93FF93809108
:1029B000B900887F803609F44AC0F0F5883209F4FE
:1029C000A7C018F5803109F49BC0B8F4882309F436
:1029D000F9C0883009F494C0FF91EF91BF91AF9195
:1029E0009F918F917F916F915F914F913F912F9127
:1029F0000F900FBE0F901F901895883109F488C072
:102A0000803251F78093690414C0803409F49DC06A
:102A100040F48033B9F38833F9F68093690485EC88
:102A2000B0C0803509F485C0883509F496C0883473
:102A300099F60E949013D0CF883909F48CC038F5EC
:102A4000883729F050F4883611F0803729F683E072
:102A500080936B041092100457C0883809F47BC02F
:102A6000803919F0803809F0B7CF80911004803296
:102A700008F071C0E091100481E08E0F8093100483
:102A80008091BB00F0E0E051FC4F80833DC0803B73
:102A900039F0E0F4803A09F479C0883A09F09CCF23
:102AA00084E080936B041092ED031092EC03E091AC
:102AB000EA03F091EB0309958091EC0381110FC0BB
:102AC00081E08093EC031092CA0309C0803C09F4B2
:102AD000A6CF883C09F4A3CF883B09F07DCFE091D5
:102AE000ED0381E08E0F8093ED03F0E0E653FC4FA1
:102AF00080818093BB009091ED038091EC0329C00D
:102B0000809146048093BB0085EC8093BC0064CF29
:102B10009091680480916704981758F5E0916804D3
:102B200081E08E0F80936804F0E0E95BFB4F8081C9
:102B3000E9CFE091680481E08E0F80936804809172
:102B4000BB00F0E0E95BFB4F8083909168048091CB
:102B500067049817C8F285E8D8CFE091680481E04F
:102B60008E0F809368048091BB00F0E0E95BFB4F1F
:102B7000808380916A0481115CCF81E08093450459
:102B800084EA8093BC0010926B0426CF85EC80937E
:102B9000BC0010926B0480911004803230F4E091FC
:102BA0001004F0E0E051FC4F10826091100470E0DE
:102BB000E091EE03F091EF0380EF93E0099510921E
:102BC00010040ACF1092690434CFCF93DF93E5E964
:102BD000F4E01382128288EE93E0A0E0B0E08483F8
:102BE0009583A683B78327E032E03183208325ECE9
:102BF00030E03587248724EC30E03787268720ECC7
:102C000030E0318B208B21EC30E0338B228B22ECB7
:102C100030E0358B248B26EC30E0378B268B118E01
:102C2000128E138E148EE2E3F5E0138212828483F7
:102C30009583A683B78389E192E091838083C6E57B
:102C4000D5E01B821A828BE292E09983888380E12F
:102C50008F8382E088871C861D861E861F861B86C2
:102C600080ED97E0A0E0B0E0888B998BAA8BBB8BBE
:102C700086E290E0A0E0B0E08C8B9D8BAE8BBF8BAA
:102C80000E940C03688F798F8A8F9B8F1C8E1D8EFC
:102C90001E8E1F8E81E492E09983888387E288A349
:102CA0001AA219A2E0E5F5E081E0808381838283A6
:102CB0008383EEE3F5E080E092E0938382838CED02
:102CC00095E09583848380E090E0A0E8BFE386836D
:102CD0009783A087B187DF91CF910895CF93DF933A
:102CE000CDB7DEB762970FB6F894DEBF0FBECDBF8B
:102CF000789484B5826084BD84B5816084BD85B5D7
:102D0000826085BD85B5816085BD80916E008160E2
:102D100080936E0010928100809181008260809388
:102D2000810080918100816080938100809180008A
:102D30008160809380008091B10084608093B100B5
:102D40008091B00081608093B00080917A008460AF
:102D500080937A0080917A00826080937A008091DB
:102D60007A00816080937A0080917A0080688093F5
:102D70007A001092C10080915D05811103C080E14D
:102D800080935D0580915E05811103C082E0809390
:102D90005E0590915E05953008F094E080916205A3
:102DA000811116C080916305811112C08091640564
:102DB00081110EC08091650581110AC080915D0569
:102DC00020E42093630580936405805C809365050F
:102DD00090935E0564E670E080E090E00E9431032D
:102DE00010925A0586E595E00E94F308892B09F0B8
:102DF00049C080915E05823028F080915A05886034
:102E000080935A0580E30E94010765E070E080E04E
:102E100090E00E94310380E30E94010761E070E0CE
:102E200080E090E00E94310380E30E94010761E0AE
:102E300070E080E090E00E94310380915A0584FDAB
:102E400003C080E20E94010760915A05606286E536
:102E500095E00E94640384E080935B056CE086E566
:102E600095E00E9464030E949C0382E080935C05CD
:102E700066E086E595E00E9464036FEF86E595E0E5
:102E80000E9461066FEF86E595E00E94610681E091
:102E900090E090932204809321048FE393E0909339
:102EA0003F0580933E0580E092E09093410580933A
:102EB000400580EB94E0909343058093420580E0C9
:102EC00090E0A0E8BFE38093440590934505A0936C
:102ED0004605B093470585ED91E0909349058093B1
:102EE000480585E391E090934B0580934A0587E080
:102EF00091E090934D0580934C0587E190E090938D
:102F00004F0580934E05E091A504F091A60482E060
:102F10008083E091A104F091A2041082E091A304C7
:102F2000F091A4048FEC80831092AD04E091A90489
:102F3000F091AA0486E08083E091A704F091A804B0
:102F4000808180618083E091A704F091A804808152
:102F500088608083E091A704F091A8048081806854
:102F60008083E091A704F091A80480818F7D808305
:102F700085E994E090935505809354056AE473E0E5
:102F80000E94CE0A63E572E085E994E00E94CE0AD1
:102F900002E010E062E0802F0E94DB02B801CE0167
:102FA00007960E94FE0B6DE573E0CE010D960E9420
:102FB000500CBE01695F7F4FCE010D960E948C0BB5
:102FC0006AE673E00E94760BBC01CE0101960E9476
:102FD000360CCE0101960E94660DCE0101960E942C
:102FE000030BCE010D960E94030BCE0107960E94A3
:102FF000030B0330110509F048C104E010E061E063
:10300000802F0E94DB02B801CE0107960E94FE0BC2
:103010006DE573E0CE010D960E94500CBE01695F14
:103020007F4FCE010D960E948C0B6BE773E00E94E0
:10303000760BBC01CE0101960E94360CCE010196A2
:103040000E94660DCE0101960E94030BCE010D96E3
:103050000E94030BCE0107960E94030B0F5F1F4FC8
:103060000E30110561F692E1592E4424439420E07C
:10307000622E20E0722E6EEE72E080E090E00E9400
:1030800031038EE3E82E85E0F82E10E000E0809119
:10309000210490912204081719070CF0EAC06EEE83
:1030A00072E080E090E00E94310366E873E0CE01B8
:1030B00001960E94500C6BE873E0CE0107960E94C7
:1030C000500CAE014F5F5F4FBE01695F7F4FF7014C
:1030D000808191810E94980DD82ECE0107960E9482
:1030E000030BCE0101960E94030BF2E1EF0EF11CDF
:1030F000DD2009F4ECC06EEE72E080E090E00E940A
:10310000310366E873E0CE0101960E94500C60E93D
:1031100073E0CE0107960E94500CAE014F5F5F4FE7
:10312000BE01695F7F4F84E993E00E94980DF82EFD
:10313000CE0107960E94030BCE0101960E94030B5D
:10314000FF2009F4A5C064EF71E080E090E00E94E8
:103150003103509EF001519EF00D1124E25CFA4FB4
:103160004F9280809180A280B380C480D580E68019
:10317000F7800085118522853385448555856685D0
:103180007785808991890E94600E6B017C01BC016A
:10319000A601CE0107960E94C00B6AE973E0CE013A
:1031A0000D960E94500CBE01695F7F4FCE010D96B7
:1031B0000E948C0B6AEA73E00E94760BBC01CE0180
:1031C00001960E94360CCE0101960E94660DCE013A
:1031D00001960E94030BCE010D960E94030BCE01B7
:1031E00007960E94030B63EB73E0CE0101960E94E9
:1031F000500CCE0101960E942D06CE0101960E9430
:10320000030BB701A601CE010D960E94C00BBE01B3
:10321000635F7F4FCE0107960E94360C61E373E037
:10322000CE0107960E94760BBC01CE0101960E944A
:10323000360C41E060E086E595E00E94A103BE0106
:103240006F5F7F4F86E595E00E941401CE010196E5
:103250000E94030BCE0107960E94030BCE010D9630
:103260000E94030B64EC79E080E090E00E9431035F
:103270000F906114710409F4FECE0E948C01882322
:1032800009F4F9CE0E940000F6CE03E010E082CEF1
:103290000E949C03509EF001519EF00D1124E25CAF
:1032A000FA4F1F9280809180A280B380C480D58025
:1032B000E680F78000851185228533854485558514
:1032C00066857785808991890E94600ED1CF0F5FD6
:1032D0001F4FDDCEEF920F931F93CF93DF93E80143
:1032E00034E047FD34E1042E000C550B57FF03C0BA
:1032F000519541955109E32E022F242FAE010E94D2
:10330000AD19CE01DF91CF911F910F91EF900895EC
:10331000BB274A3031F4992322F4BDE29095819580
:103320009F4F0C949419BB27FB015527AA27880FA0
:10333000991FAA1FA41710F0A41B83955051B9F729
:10334000A05DAA3308F0A95DA193009779F7B111A8
:10335000B1931192CB010C94E41BA9E0B0E0E3EB34
:10336000F9E10C94191D6A01F22EB02E102FFBE327
:10337000AF2EA01608F41BE31F5F012F27E0AE015C
:103380004F5F5F4F0E940C1BBC018981982F997081
:10339000913009F43FC09BE2E1FC04C09E2D917086
:1033A000E0FC3AC05E2D5071E82FE87083FF46C004
:1033B00084E0911101C083E0EF2DE81B8F1508F028
:1033C000E0E0D6018E2F20E2552351F1992329F018
:1033D000D6019C93C60101966C0196012D5F3F4F6B
:1033E000E2FE24C08EE4D6018C9391E411969C9366
:1033F000119712968C93D9018E2F90E281111BC0E8
:10340000E20FF32FF11D10828EEF9FEF2996ECE073
:103410000C94351D9DE2C6CF90E2C4CF2D93815010
:103420008111FCCFCE0ED11CE0E0D0CF8EE6D601CC
:103430008C9391E6DBCF9D938150E0CF482F447071
:1034400082FF3DC084E0911101C083E08F1510F42C
:10345000EF2DE81BD6018E2F20E2552309F1992389
:1034600029F0D6019C93C60101966C0196012D5F4F
:103470003F4FE2FE1BC089E4D6018C938EE4119687
:103480008C93119786E412968C93D9018E2F90E23B
:10349000882309F4B5CF9D938150FACF2D938150A5
:1034A0008111FCCFCE0ED11CE0E0D9CF89E6D60148
:1034B0008C938EE611968C93119786E6E4CF9B0150
:1034C00077FF02C030E020E0A1E0B0E0911102C03F
:1034D000B0E0A0E0F9013196AE0FBF1F8B2C912C0C
:1034E000BB2009F461C05401EFEFAE1ABE0AAA0D69
:1034F000BB1DFA161B0619F014F04F2D4A1B511173
:1035000088C0E3FC59C07601A42FB0E2A1114FC0DE
:10351000C40ED11C992309F45BC040E0D60111967A
:10352000F60190836D01552309F448C0012F060F61
:103530009A81582F507184FF03C0913309F40150D0
:1035400010160CF047C0093008F008E0EEE2FE2E3D
:103550005B01A01AB10885019194819491082F3FD5
:10356000320729F4D601FC92F60131966F016217F9
:10357000730794F1021713077CF5DB01A21BB30B51
:10358000AA24A394B12CAC0EBD1EAA0DBB1D11968E
:103590008C9121503109D601119628153905F4F086
:1035A000F60180836D01DBCFB12CA12CA0CFF701F8
:1035B000B1937F01A150AACF9111B0CFD601942F22
:1035C00050E302C05D9391509111FCCFC40ED11C09
:1035D00040E0ACCF01E0BACF80E3DBCF62177307E6
:1035E00031F4963388F4953311F4552369F0F601DC
:1035F0008083FD01842F90E2811108C0A40FB11DCA
:103600001C9290E080E002CF81E3F1CF9193815052
:10361000F3CF911183CF8ACF283008F027E03327EA
:10362000DA01990F311D87FD9160009661057105E2
:1036300039F432602E5F3D9330E32A95E1F7089527
:103640009F3F30F080387105610509F03C5F3C5FB9
:103650003D93913008F08068911DDF93CF931F93C5
:103660000F93FF92EF92192F987F9695E92F9695D9
:103670009695E90FFF27EE53FF4F99273327EE2446
:10368000FF24A701E70105900894079428F4360F5A
:10369000E71EF81E491F511D660F771F881F991FCF
:1036A0000694A1F70590079428F4E70EF81E491F29
:1036B000561FC11D770F881F991F661F0694A1F71B
:1036C0000590079428F4F80E491F561FC71FD11DF7
:1036D000880F991F661F771F0694A1F7059007941E
:1036E00020F4490F561FC71FD81F990F661F771F59
:1036F000881F0694A9F784911095177041F0D6950C
:10370000C79557954795F794E7941A95C1F7E8E65A
:10371000F0E068941590159135916591959105901B
:103720007FE27395E118F10A430B560BC90BD009E0
:10373000C0F7E10CF11E431F561FC91FD01D7EF4B8
:10374000703311F48A95E6CFE894015030F0080FF9
:103750000AF40027021708F4202F2395022F7A334A
:1037600028F079E37D932A95E9F710C07D932A9597
:1037700089F6069497956795379517951794E118EC
:10378000F10A430B560BC90BD00998F023957E9193
:1037900073957A3308F070E37C932013B8F77E9129
:1037A00070617D9330F0839571E37D9370E32A958A
:1037B000E1F71124EF90FF900F911F91CF91DF91CE
:1037C000992787FD90950895DC01FC01672F719181
:1037D0007723E1F7329704C07C916D9370836291F7
:1037E000AE17BF07C8F30895E89409C097FB3EF4ED
:1037F00090958095709561957F4F8F4F9F4F99233E
:10380000A9F0F92F96E9BB279395F69587957795BB
:103810006795B795F111F8CFFAF4BB0F11F460FF7B
:103820001BC06F5F7F4F8F4F9F4F16C0882311F0D3
:1038300096E911C0772321F09EE8872F762F05C0E7
:10384000662371F096E8862F70E060E02AF09A9582
:10385000660F771F881FDAF7880F9695879597F977
:103860000895990F0008550FAA0BE0E8FEEF161611
:103870001706E807F907C0F012161306E407F50764
:1038800098F0621B730B840B950B39F40A2661F0D8
:10389000232B242B252B21F408950A2609F4A1407B
:1038A000A6958FEF811D811D08950E94681C0C94C0
:1038B000D91C0E94CB1C38F00E94D21C20F095230A
:1038C00011F00C94C21C0C94C81C11240C940D1DF6
:1038D0000E94EA1C70F3959FC1F3950F50E0551FAD
:1038E000629FF001729FBB27F00DB11D639FAA2755
:1038F000F00DB11DAA1F649F6627B00DA11D661FA4
:10390000829F2227B00DA11D621F739FB00DA11DC4
:10391000621F839FA00D611D221F749F3327A00D7E
:10392000611D231F849F600D211D822F762F6A2F1A
:1039300011249F5750409AF0F1F088234AF0EE0F7F
:10394000FF1FBB1F661F771F881F91505040A9F7AC
:103950009E3F510580F00C94C21C0C940D1D5F3FDE
:10396000E4F3983ED4F3869577956795B795F795E8
:10397000E7959F5FC1F7FE2B880F911D9695879560
:1039800097F9089597F99F6780E870E060E00895DF
:103990009FEF80EC089500240A9416161706180667
:1039A0000906089500240A94121613061406050643
:1039B0000895092E0394000C11F4882352F0BB0FD4
:1039C00040F4BF2B11F460FF04C06F5F7F4F8F4F37
:1039D0009F4F089557FD9058440F551F59F05F3F72
:1039E00071F04795880F97FB991F61F09F3F79F021
:1039F00087950895121613061406551FF2CF4695A3
:103A0000F1DF08C0161617061806991FF1CF869524
:103A10007105610508940895E894BB276627772708
:103A2000CB0197F908952F923F924F925F926F9238
:103A30007F928F929F92AF92BF92CF92DF92EF923E
:103A4000FF920F931F93CF93DF93CDB7DEB7CA1BBF
:103A5000DB0B0FB6F894DEBF0FBECDBF09942A88EA
:103A6000398848885F846E847D848C849B84AA8492
:103A7000B984C884DF80EE80FD800C811B81AA811F
:103A8000B981CE0FD11D0FB6F894DEBF0FBECDBFEA
:103A9000ED0108955058BB27AA270E94621D0C947F
:103AA000D91C0E94CB1C38F00E94D21C20F039F4A3
:103AB0009F3F19F426F40C94C81C0EF4E095E7FB24
:103AC0000C94C21CE92F0E94EA1C58F3BA17620733
:103AD00073078407950720F079F4A6F50C940C1D64
:103AE0000EF4E0950B2EBA2FA02D0B01B901900119
:103AF0000C01CA01A0011124FF27591B99F0593F5D
:103B000050F4503E68F11A16F040A22F232F342FA4
:103B10004427585FF3CF469537952795A795F040F2
:103B20005395C9F77EF41F16BA0B620B730B840B07
:103B3000BAF09150A1F0FF0FBB1F661F771F881FBF
:103B4000C2F70EC0BA0F621F731F841F48F4879517
:103B500077956795B795F7959E3F08F0B0CF939509
:103B6000880F08F09927EE0F9795879508950E9482
:103B7000CB1D0C94D91C0E94D21C58F00E94CB1C67
:103B800040F029F45F3F29F00C94C21C51110C94B1
:103B90000D1D0C94C81C0E94EA1C68F39923B1F314
:103BA000552391F3951B550BBB27AA276217730763
:103BB000840738F09F5F5F4F220F331F441FAA1FF7
:103BC000A9F335D00E2E3AF0E0E832D091505040B3
:103BD000E695001CCAF72BD0FE2F29D0660F771F61
:103BE000881FBB1F261737074807AB07B0E809F047
:103BF000BB0B802DBF01FF2793585F4F3AF09E3FCC
:103C0000510578F00C94C21C0C940D1D5F3FE4F339
:103C1000983ED4F3869577956795B795F7959F5F0E
:103C2000C9F7880F911D9695879597F90895E1E05A
:103C3000660F771F881FBB1F621773078407BA07B9
:103C400020F0621B730B840BBA0BEE1F88F7E09514
:103C500008950E94F21C88F09F5798F0B92F992779
:103C6000B751B0F0E1F0660F771F881F991F1AF067
:103C7000BA95C9F714C0B13091F00E940C1DB1E0A3
:103C800008950C940C1D672F782F8827B85F39F0A2
:103C9000B93FCCF3869577956795B395D9F73EF400
:103CA00090958095709561957F4F8F4F9F4F0895A8
:103CB0000E94311C08F48FEF089597FB072E16F42D
:103CC000009407D077FD09D00E94901E07FC05D014
:103CD0003EF4909581959F4F0895709561957F4F23
:103CE0000895052E97FB1EF400940E94881E57FD30
:103CF00007D00E94A41E07FC03D04EF40C94881E2B
:103D000050954095309521953F4F4F4F5F4F089507
:103D100090958095709561957F4F8F4F9F4F089537
:103D2000AA1BBB1B51E107C0AA1FBB1FA617B707E1
:103D300010F0A61BB70B881F991F5A95A9F78095FD
:103D40009095BC01CD010895A1E21A2EAA1BBB1BC0
:103D5000FD010DC0AA1FBB1FEE1FFF1FA217B30757
:103D6000E407F50720F0A21BB30BE40BF50B661F6D
:103D7000771F881F991F1A9469F760957095809531
:103D800090959B01AC01BD01CF010895EE0FFF1F7F
:103D90000590F491E02D09940F931F93CF93DF9337
:103DA0008230910510F482E090E0E0918505F09179
:103DB000860530E020E0B0E0A0E0309799F42115CE
:103DC000310509F44AC0281B390B24303105D8F5D8
:103DD0008A819B816115710589F1FB01938382833F
:103DE000FE0111C04081518102811381481759079A
:103DF000E0F04817590799F4109761F012960C9368
:103E0000129713961C933296CF01DF91CF911F9199
:103E10000F9108950093850510938605F4CF211521
:103E2000310551F04217530738F0A901DB019A011F
:103E3000BD01DF01F801C1CFEF01F9CF90938605F5
:103E400080938505CDCFFE01E20FF31F81939193FF
:103E50002250310939832883D7CF209183053091AF
:103E60008405232B41F42091030130910401309308
:103E700084052093830520910101309102012115D1
:103E8000310541F42DB73EB740910501509106012F
:103E9000241B350BE0918305F0918405E217F307AD
:103EA000A0F42E1B3F0B2817390778F0AC014E5FAA
:103EB0005F4F2417350748F04E0F5F1F509384055E
:103EC00040938305819391939FCFF0E0E0E09CCFF6
:103ED000CF93DF930097E9F0FC01329713821282AF
:103EE000A0918505B0918605ED0130E020E01097A6
:103EF000A1F420813181820F931F2091830530919D
:103F000084052817390709F061C0F0938405E09310
:103F10008305DF91CF910895EA01CE17DF07E8F519
:103F20004A815B819E0141155105B1F7E901FB838F
:103F3000EA8349915991C40FD51FEC17FD0761F42D
:103F4000808191810296840F951FE901998388836E
:103F5000828193819B838A83F0E0E0E012968D91C9
:103F60009C9113970097B9F52D913C911197CD0134
:103F70000296820F931F20918305309184052817A4
:103F8000390739F6309751F510928605109285055C
:103F9000B0938405A0938305BCCFD383C2834081B3
:103FA0005181840F951FC817D90761F44E5F5F4F89
:103FB00088819981480F591F518340838A819B8151
:103FC000938382832115310509F0B0CFF0938605E4
:103FD000E09385059ECFFD01DC01C0CF13821282E4
:103FE000D7CFB0E0A0E0E7EFFFE10C94151D8C0106
:103FF000009751F4CB010E94CC1E8C01C801CDB7B3
:10400000DEB7E0E10C94311DFC01E60FF71F9C01C7
:1040100022503109E217F30708F49DC0D901CD9170
:10402000DC911197C617D70798F0C530D10530F34A
:10403000CE0104978617970708F3C61BD70B229764
:10404000C193D1936D937C93CF010E94681FD6CF0B
:104050005B01AC1ABD0A4C018C0E9D1EA09185051A
:10406000B0918605512C412CF12CE12C109731F5A3
:1040700080918305909184058815990509F05CC0AD
:104080004616570608F058C0809101019091020130
:10409000009741F48DB79EB74091050150910601FC
:1040A000841B950BE817F90708F055C0F0938405B9
:1040B000E0938305F90171836083A0CF8D919C917A
:1040C000119712966C90129713967C901397A815DF
:1040D000B90559F56C0142E0C40ED11CCA14DB04C9
:1040E00020F1AC014A195B09DA011296159780F0AC
:1040F0006282738251834083D9016D937C93E11472
:10410000F10471F0D7011396FC93EE93129776CFDA
:1041100022968C0F9D1FF90191838083F301EFCFCD
:10412000F0938605E093850569CF4816590608F493
:104130002C017D01D3019ACFCB010E94CC1E7C01C2
:10414000009749F0AE01B8010E94B320C8010E9457
:10415000681F870153CF10E000E050CF81E090E06E
:10416000F8940C94CC20FB01DC0102C001900D926C
:1041700041505040D8F70895FB01DC018D9101902A
:1041800080190110D9F3990B0895FB01DC0101900E
:104190000D920020E1F70895F894FFCFFF0000870B
:1041A0000580000200020000000100000000000085
:1041B00000010000000000010001000200020002F6
:1041C00000020002000200020002000200020002DF
:1041D000000000803E0000803E0000803E00008025
:1041E0003E0000803E0000803E0000803E000080D7
:1041F0003E0000803E0000803E0000803E000080C7
:104200003E0000803E0000803E0000803E000080B6
:104210003E0000803E0000803E0000803E000080A6
:104220003E0000803E0000803E0000803E00008096
:104230003E0000803E0000803E0000803E00008086
:104240003E0000803E0000803E0000803E00008076
:104250003E0000803E0000803E0000803E00008066
:104260003E0000803E0000803E0000803E00008056
:104270003E700317049704170497049704970420CB
:1042800006750527059704270527052006E00697EC
:1042900004170420062006270520062006E0060055
:1042A000000000C20122014F010F0280015E017275
:1042B0000100000000C205950519046B058E057B01
:1042C000056C0500000000C803220119042B071922
:1042D0000416040B0B1304130400000000C803228F
:1042E0000119042B07F308F8079306610613040D60
:1042F0000A0064656275670044454255473A2000EC
:10430000696E666F00494E464F3A20007761726EC3
:10431000696E67005741524E494E473A2000736517
:1043200076657265005345564552453A2000206631
:10433000616C736500207472756500706C617969D9
:104340006E67007374617274696E6720736F6E6755
:1043500000736F6D657468696E672069732077728A
:104360006F6E6720776974682074686520736F6E5C
:104370006720696E70757400706C6179696E672072
:10438000746F6E6520776974682070697463682C37
:1043900020646972656374696F6E2C204C656E676A
:1043A00074683A20002C00736F6D657468696E67DD
:1043B000732077726F6E6720692063616E20666577
:1043C000656C206974006163632E3A2000250065E6
:1043D0006E64206F6620736F6E67004576616E674E
:1043E000656C696F6E0053657269616C20496E6916
:1043F0007469616C697A65640073657474696E6769
:104400002070696E200020746F20696E7075745F73
:1044100070756C6C75700020746F206F757470759A
:104420007400706C6179006E657874007472790044
:104430006D6F64653F006176672E206163637572FE
:104440006163793A20002070657263656E74006163
:0A44500076672E206163632E3A00A8
:107E0000112484B714BE81FFF0D085E080938100F7
:107E100082E08093C00088E18093C10086E0809377
:107E2000C20080E18093C4008EE0C9D0259A86E02C
:107E300020E33CEF91E0309385002093840096BBD3
:107E4000B09BFECF1D9AA8958150A9F7CC24DD24C4
:107E500088248394B5E0AB2EA1E19A2EF3E0BF2EE7
:107E6000A2D0813461F49FD0082FAFD0023811F036
:107E7000013811F484E001C083E08DD089C08234E0
:107E800011F484E103C0853419F485E0A6D080C0E4
:107E9000853579F488D0E82EFF2485D0082F10E0AE
:107EA000102F00270E291F29000F111F8ED06801E7
:107EB0006FC0863521F484E090D080E0DECF843638
:107EC00009F040C070D06FD0082F6DD080E0C81688
:107ED00080E7D80618F4F601B7BEE895C0E0D1E017
:107EE00062D089930C17E1F7F0E0CF16F0E7DF06D8
:107EF00018F0F601B7BEE89568D007B600FCFDCFD4
:107F0000A601A0E0B1E02C9130E011968C91119780
:107F100090E0982F8827822B932B1296FA010C0160
:107F200087BEE89511244E5F5F4FF1E0A038BF0790
:107F300051F7F601A7BEE89507B600FCFDCF97BE46
:107F4000E89526C08437B1F42ED02DD0F82E2BD052
:107F50003CD0F601EF2C8F010F5F1F4F84911BD097
:107F6000EA94F801C1F70894C11CD11CFA94CF0C13
:107F7000D11C0EC0853739F428D08EE10CD085E9AC
:107F80000AD08FE07ACF813511F488E018D01DD067
:107F900080E101D065CF982F8091C00085FFFCCF94
:107FA0009093C60008958091C00087FFFCCF809118
:107FB000C00084FD01C0A8958091C6000895E0E648
:107FC000F0E098E1908380830895EDDF803219F02E
:107FD00088E0F5DFFFCF84E1DECF1F93182FE3DFCA
:107FE0001150E9F7F2DF1F91089580E0E8DFEE27F6
:047FF000FF270994CA
:027FFE00040479
:00000001FF
